:020000020000FC
:100000000FEF0DBF08E00DBF00E80093610003E0B3
:10001000009361003A9804E008B93B9808E008B9F9
:100020000FEF0AB90FEF04B910E0F0E0E8E7149120
:100030001BB900270093C100329B0E942800339B0C
:100040000E943200F9CF04E60A950030E9F70895DE
:100050000E942300329BFCCF239524FD22270E947F
:10006000440008950E942300339BFCCF2A9524FF6F
:100070002FE00E944400089581F34961332505F182
:10008000013111078D430D1DF0E0E8E7E20F1491F7
:040090001BB90895FB
:00000001FF
